:060000000A128A1100291A
:10000800F100030EF2000C180E20720E8300F10EA0
:10001800710E0900031383120B308F00DC308E0041
:0E0028000C1003138312F00A70088500080004
:10020000072113211C21232103138312062903171D
:100210008316880189010313831685010313831252
:100220008501F0010800031383160C1403138312D5
:100230008B170B170C100800031383160F140F17DE
:100240008F120F120800031383121013901610124E
:10025000901190101014031383120B308F00DC30B8
:060260008E000C100800E6
:04400E00D420FF3F7C
:00000001FF
